:020000040800F2
:100000008805002005010008972C000883270008B8
:10001000952C0008A50A00086532000800000000C1
:100020000000000000000000000000008F2E00080B
:10003000510F0008000000008D2E0008912E0008CE
:100040001F0100081F0100081F0100081F01000810
:100050001F0100081F0100081F0100081F01000800
:100060001F0100081F0100081F0100081F010008F0
:100070001F0100081F0100081F0100081F010008E0
:100080001F0100081F0100081F0100081F010008D0
:100090001F0100081F0100081F0100081F010008C0
:1000A0001F0100081F0100081F0100081F010008B0
:1000B0001F0100081F0100081F0100081F010008A0
:1000C0001F0100081F0100081F0100081F01000890
:1000D0001F0100081F0100081F0100081F01000880
:1000E0001F0100081F0100081F010008DFF810D0E1
:1000F00000F022FC00480047A13B0008AFF300805D
:10010000880500200648804706480047FEE7FEE7CE
:10011000FEE7FEE7FEE7FEE7FEE7FEE7FEE7FEE7B7
:100120000D2F0008ED000008202A04DB203A21FAF8
:1001300002F00021704721FA02F3D040C2F1200200
:100140009140084319467047D2B201E000F8012BF4
:10015000491EFBD270470022F6E710B513460A4647
:1001600004461946FFF7F0FF204610BDF0B480EAC0
:100170000102D40F4200B2EB410F02D20246084600
:1001800011464A0042D0C30DDDB2C1F3C752AD1AC9
:10019000202D35DAC1F3160141F4000204B15242B8
:1001A000C5F1200602FA06F12A411044B3EBD05FF4
:1001B00023D0C4B1012DA0EBC35009DCF0BC4FF03B
:1001C000004202EAC352DBB200F5000000F0E2B9DF
:1001D000400000F1807000EBC350A0F1807040EA55
:1001E000D170490009E0490841EAC071A0EBC35051
:1001F00000F50000400800EBC350F0BC00F0C1B9AE
:100200006142012202EB4101001BF6E7F0BC70479E
:1002100081F00041AAE780F00040A7E780EA0102F0
:1002200010B502F00043400022D04A001FD0010E5A
:1002300001EB1261C0F35600C2F3560240F4000015
:1002400042F40002A0FB022000047F39140400D015
:10025000401C50EA124001D44000491EC2B20C06B4
:1002600004EBD010401C4008802A02D003E000209C
:1002700010BD20F00100002900DA0020184310BD55
:1002800030B480EA010202F0004530F0004221F073
:10029000004013D090B1C30DD40DC2F31601C0F3CA
:1002A0001600E41A41F4000140F400027D3491424A
:1002B00001D3641C00E04900002C02DA30BC0020AD
:1002C00070474FF400000023914201D3891A034381
:1002D00040084FEA4101F7D151B1914202D14FF0AC
:1002E000004105E002D24FF0010101E06FF0010191
:1002F00003EBC450284430BC00F043B92DE9FE4F55
:1003000081EA030404F0004421F0004100944FF01E
:10031000000B23F0004350EA01045ED052EA0304CC
:100320005BD0C3F30A54C1F30A552C44A4F2F3344E
:100330000194A0FB0254C1F3130141F48011C3F3F3
:10034000130343F4801301FB024400FB034E840AB1
:10035000970A44EA815447EA8357A4FB0768029549
:100360008D0A05FB07854FEA932C04FB0C542705E7
:10037000029D4FEA065847EA1637B5EB08056EEBC3
:10038000070C870E920E47EA811742EA8312A7FBF9
:100390000201B6EB0B0164EB00042B0D43EA0C33B6
:1003A0005E1844EB1C50DA465146E7FB0201C5F3E8
:1003B00013044FEA0B3343EA14534FEA0432019C0F
:1003C00043EA0603A4F10C040294009CCDE900B4B6
:1003D00000F01DF903B0BDE8F08F00200146F9E7F9
:1003E00070B521F0004303430CD0C1F30A5500243B
:1003F000D5EB040564EB0403D617AD1AB34102DB59
:100400000020014670BD201841EB025170BDC10FA4
:1004100080EAE0700844CA079623002100F0BAB8C9
:100420000EB540F2334102910021CDE900110A4698
:100430000B4600F0ECF803B000BD00F0004220F0E5
:100440000040C10DC0F3160040F400007F2901DA1E
:1004500000207047962903DCC1F19601C84001E0F5
:1004600096398840002AF4D04042704700F000429C
:1004700030F000400AD0C10D01F56071C0F31600E4
:1004800042EA0151C208400711437047002001466B
:10049000704701F0004330B421F0004150EA0102FE
:1004A00006D00A0DA2F56072C1F31301002A02DC26
:1004B00030BC00207047440F44EAC104C100E0187A
:1004C00030BC00EBC25000F05CB80000002801DB3B
:1004D000C0F10040002901DBC1F1004181427047B9
:1004E000002801DBC0F10040002901DBC1F100411F
:1004F0008842704730B50B46014600202022012477
:1005000009E021FA02F59D4205D303FA02F5491BE1
:1005100004FA02F52844151EA2F10102F1DC30BDF7
:100520002DE9F05F0546002092469B468846064628
:10053000814640241BE02846414647462246FFF7B5
:10054000F3FD53465A46C01A914110D3114618463E
:10055000224600F003FA2D1A67EB01084F462246A7
:100560000120002100F0FAF917EB00094E41201E8E
:10057000A4F10104DFDC484631462A464346BDE883
:10058000F09F0029A8BF7047401C490008BF20F019
:100590000100704710B4B0FA80FC00FA0CF050EA89
:1005A000010404BF10BC704749B1CCF1200421FA0A
:1005B00004F411FA0CF118BF012121430843A3EB05
:1005C0000C01CB1D4FEA00614FEA102042BF002012
:1005D00010BC704700EBC35010440029A4BF10BCEE
:1005E0007047401C490008BF20F0010010BC704754
:1005F00010B5141E73F1000408DA401C41F100012B
:1006000092185B411A4301D120F0010010BD2DE981
:10061000F04D92469B4611B1B1FA81F202E0B0FA78
:1006200080F22032904600F099F904460F4640EAE5
:100630000A0041EA0B0153465A46084313D01146BB
:1006400053EA010019D0C8F140025046FFF76CFD93
:1006500005460E4650465946424600F07FF908438B
:1006600005D0012004E020463946BDE8F08D002089
:10067000054346EAE0762C4337430A986305E40ACB
:10068000A0EB08000022FD0A44EA47540A3002D5D4
:1006900000200146E9E7010510196941DDE9084537
:1006A00000196941BDE8F04DA2E72DE9FE4F8046F3
:1006B00081EA0300C00F0C46009021F0004123F0B6
:1006C0000045B8EB0200A94105D2404621469046BC
:1006D0001C460B46024623F00040104347D0270D2E
:1006E000C7F30A00C3F30A510290401A0190402850
:1006F0006BDAC3F3130040F4801B0098924620B1DC
:100700000023D2EB030A63EB0B0B01985946C0F1AF
:100710004002504600F022F906460D465046594622
:10072000019A00F02AF910EB08006141002487EAE1
:10073000115284EAE7731A4340D0009A62B3019AD7
:10074000012A4FEA075215DC001B61EB02014FF052
:10075000004202EA0752CDE90042001C41F5801137
:1007600032462B46FFF753FF03B0BDE8F08F4046FB
:100770002146F9E7001B61EB0201001C41F58013E3
:1007800000185B412018A2F5001747EB030140EA6F
:10079000D570B6196D4111E06D084FEA360645EA8D
:1007A000C0754FEA0752001B61EB0201001C41F5C6
:1007B000801149084FEA30000019514132462B465A
:1007C00003B0BDE8F04FFFF713BF009801224000CF
:1007D0000023D0EB020263EBE073009821464FEA5E
:1007E000E074B8EB000061EB0401E9E783F000433B
:1007F0005BE781F0004158E72DE9F04D81EA030401
:1008000004F0004B21F0004514464FF0000A23F09D
:10081000004150EA050220D054EA01021DD0C5F380
:100820000A570246C5F31303C1F31300C1F30A5676
:1008300040F4801543F48013A7EB0608101BD6463E
:1008400008F2FD3873EB050002D308F1010801E05E
:1008500092185B41B8F1000F03DA00200146BDE8B1
:10086000F08D00204FF48011064684460EE0171BE1
:1008700073EB050705D3121B63EB050306434CEA34
:10088000010C49084FEA300092185B4150EA010719
:10089000EDD152EA030012D082EA040083EA050196
:1008A000084305D0101BAB4106D20122002306E00D
:1008B00000224FF0004302E06FF0010253101AEBE8
:1008C00006004CEB085110EB0A0041EB0B01BDE8B0
:1008D000F04DFFF78DBEC1F30A52C1F3130140F290
:1008E000FF3341F480119A4202DA0020014670473A
:1008F00040F233439A42A2F2334202DC5242FFF703
:1009000013BC00F02BB8000030B5041E71F10004D8
:1009100004DB4FF00044404264EB0101141E73F10C
:10092000000405DB1C464FF00043524263EB040316
:10093000994208BF904230BD064C074D06E0E06882
:1009400040F0010394E8070098471034AC42F6D316
:10095000FFF7D0FB305A0008505A0008202A04DB69
:10096000203A00FA02F1002070479140C2F12003C2
:1009700020FA03F3194390407047202A06DBCB1777
:10098000203A41FA02F043EAE07306E041FA02F34A
:10099000D040C2F120029140084319467047000040
:1009A00070B5044600688168C943C9071CD18168D5
:1009B00021F00101816000F02FFE05460FE000BF2D
:1009C00000F02AFE401B022809D9A06A40F010005E
:1009D000A062E06A40F00100E062012070BD206882
:1009E0008068C043C007EBD0002070BDF8B500267A
:1009F0000446009600688168C943C90728D0816809
:100A000041F001018160134813490068B0FBF1F027
:100A100000E0401E00900028FBD100F0FDFD0546DF
:100A200011E000BF00F0F8FD401B02280BD9A06ABE
:100A300040F01000A062E06A40F00100E06284F83B
:100A400024600120F8BD20688068C043C007E9D158
:100A50000020F8BD2800002040420F0010B5002102
:100A6000064801F045FD40F6B83000F0B1FCBDE8A5
:100A700010400021014801F089BD0000B4000020B1
:100A800010B50821064801F033FD40F6B83000F0FB
:100A90009FFCBDE810400821014801F077BD00002F
:100AA000B4000020FEE7000070B5002400F058F804
:100AB000124D04E0641CE4B2012000F09BFC4021D4
:100AC000284600F09FFD10B1C82CF3D30FE0C82CCE
:100AD0000DD2002404E0641CE4B2012000F08AFC82
:100AE0004021284600F08EFD18B1F02C04D30120DF
:100AF00070BDF02CEFD3FAE7002070BD0008014074
:100B000010B500F0BDF800F0A1F8FFF7CDFFCC2044
:100B100000F0C4F8BE2000F0C1F800F087F80446E9
:100B200000F084F804EB002080B21F21B1EBD02F3D
:100B300009D1C043401C80B2FFF772FC0022074B72
:100B4000FFF7DCFB05E0FFF76BFC6FF00302FFF73C
:100B500047FCBDE81040FFF79CBC00000000B0BFA0
:100B60001FB500200190402000900120029003203A
:100B700003906946014800F055FC1FBD0008014084
:100B80001FB54020009001200190029003200390A7
:100B90006946024800F046FC1FBD00000008014005
:100BA0000D4800B5816985B041F00401816180691B
:100BB000694600F00400049040200090012001905C
:100BC000029003200390054800F02CFC00F03EF852
:100BD000FFF76AFF05B000BD0010024000080140A9
:100BE00010B5FFF7CDFF104C00224021204600F049
:100BF0000EFD022000F0FEFB01224021204600F005
:100C000006FDFFF7ADFF0C2000F0F4FB402120466D
:100C100000F0F8FC08B1012400E00024322000F0CC
:100C2000E9FB204610BD00000008014070B500251A
:100C30005FF00104FFF7D4FFC001641C40EA5500D7
:100C4000E4B2C5B2082CF5D9284670BD10B5FFF73F
:100C500097FF0A4C00224021204600F0D8FC40F2C9
:100C6000EE2000F0C7FB01224021204600F0CFFC1F
:100C7000BDE810400F2000F0BDBB0000000801409F
:100C800010B5FFF7E3FFFFF70FFFCC2000F006F8E9
:100C9000BDE81040442000F001B8000070B50546E2
:100CA000FFF76EFF144E012415F0010F4FEA5505B2
:100CB0004FF000024FF0400130460BD000F0A7FC8F
:100CC000022000F097FB01224021304600F09FFCFB
:100CD0003C200AE000F09BFC3C2000F08BFB012252
:100CE0004021304600F093FC022000F083FB641C9E
:100CF000E4B2082CD8D970BD0008014070B50024BA
:100D000000F058F8124D04E0641CE4B2012000F039
:100D100071FB8021284600F075FC10B1C82CF3D37C
:100D20000FE0C82C0DD2002404E0641CE4B20120C2
:100D300000F060FB8021284600F064FC18B1F02C24
:100D400004D3012070BDF02CEFD3FAE7002070BD72
:100D50000008014010B500F0BDF800F0A1F8FFF761
:100D6000CDFFCC2000F0C4F8BE2000F0C1F800F0A8
:100D700087F8044600F084F804EB002080B21F21BD
:100D8000B1EBD02F09D1C043401C80B2FFF748FB24
:100D90000022074BFFF7B2FA05E0FFF741FB6FF0C7
:100DA0000302FFF71DFBBDE81040FFF772BB000018
:100DB0000000B0BF1FB500200190802000900120EE
:100DC0000290032003906946014800F02BFB1FBDF1
:100DD000000801401FB58020009001200190029082
:100DE000032003906946024800F01CFB1FBD000071
:100DF000000801400D4800B5816985B041F004014B
:100E000081618069694600F00400049080200090B0
:100E100001200190029003200390054800F002FB9E
:100E200000F03EF8FFF76AFF05B000BD0010024079
:100E30000008014010B5FFF7CDFF104C00228021C3
:100E4000204600F0E4FB022000F0D4FA01228021C9
:100E5000204600F0DCFBFFF7ADFF0C2000F0CAFAE3
:100E60008021204600F0CEFB08B1012400E00024E0
:100E7000322000F0BFFA204610BD000000080140FB
:100E800070B500255FF00104FFF7D4FFC001641CBA
:100E900040EA5500E4B2C5B2082CF5D9284670BD29
:100EA00010B5FFF797FF0A4C00228021204600F082
:100EB000AEFB40F2EE2000F09DFA01228021204698
:100EC00000F0A5FBBDE810400F2000F093BA000031
:100ED0000008014010B5FFF7E3FFFFF70FFFCC203C
:100EE00000F006F8BDE81040442000F001B8000012
:100EF00070B50546FFF76EFF144E012415F0010F83
:100F00004FEA55054FF000024FF0800130460BD0FC
:100F100000F07DFB022000F06DFA012280213046B6
:100F200000F075FB3C200AE000F071FB3C2000F073
:100F300061FA01228021304600F069FB022000F0B6
:100F400059FA641CE4B2082CD8D970BD00080140DD
:100F50007047000001221103014800F058BB000057
:100F60000008014072B6FEE7F8B50024009490F83E
:100F700024202546012A12D0012280F824204A6824
:100F80001F23072A0DD20668776B521E02EB8202DE
:100F900093409F430B6893401F43776319E00220FF
:100FA000F8BD06680D2A0AD2376BD21F02EB820207
:100FB00093409F430B6893401F43376309E0F76AF0
:100FC0000D3A02EB820293409F430B6893401F430C
:100FD000F7620A68072306680A2A0AD3F7680A3AFA
:100FE00002EB420293409F438B6893401F43F7609C
:100FF00008E0376902EB420293409F438B689340BD
:101000001F4337610A68102A01D0112A20D1124BE0
:1010100002689A4217D193681B0219D4936843F46B
:10102000000393600968102912D10C490C4A096821
:10103000B1FBF2F101EB8101490000E0491E009192
:101040000029FBD104E0816A41F020018162012482
:1010500080F824502046F8BD0024014028000020DC
:1010600040420F000068C06C704700002DE9F0415D
:101070004FF0000704003D467ED0A06A002628B944
:10108000E66284F82460204600F07EF82046FFF7F0
:1010900087FCA16AC90600D420B1A06A40F0100004
:1010A000A06269E0A16A21F4885141F00201A162C5
:1010B0006268E169237B0A4347EA43010A43A16866
:1010C0004FF48077B94209D0012907D05FF00001C1
:1010D00094F814C0BCF1010F02D00AE03946F7E7DA
:1010E000F3B1A36A43F02003A362E36A43F0010370
:1010F000E3622368D3F804C02CF4694C4CEA010C79
:10110000C3F804C021688B68DFF870C003EA0C03E1
:1011100013438B60A168B9420BD0012909D00CE0C0
:10112000DFF85CC0A3690CEB43330B4343F400616D
:10113000DFE7218A0D05A5F580152168CB6A23F428
:1011400070032B43CB62216889680E4B1940914292
:1011500008D1E662A16A21F0020141F00101A16219
:10116000BDE8F081A06A20F0020040F01000A0620B
:10117000E06A40F00100E0620120F1E7FDF7E1FFE5
:1011800000E0FFFFFE0E1FFF00B585B000210091BB
:1011900001910291039100680E49884218D10E48CE
:1011A000816941F400718161816901F400710491E8
:1011B000816941F0040181618069694600F00400A1
:1011C00004900220009003200190044800F02AF9C6
:1011D00005B000BD0024014000100240000801409D
:1011E0002DE9F84300260D460446009600F014FA57
:1011F000804620688168C90508D5A06A40F02000B3
:10120000A06284F824600120BDE8F8834168C90524
:1012100003D4C06A10F4700F26D0022000F016FC30
:1012200038490968B1FBF0F72068036936490B4279
:101230004FEA61014FEAA1121BD1C3684FEA611C5A
:1012400013EA0C0F15D103690B4221D1C06810427B
:101250001ED114201FE0681C06D045B300F0DCF955
:10126000A0EB0800A84222D8206800688007F2D5C9
:101270002AE003690B4202D1C168114206D002691B
:1012800022490A4206D1C068084203D1542002E034
:10129000292000E0FC204743009813E0681C0ED092
:1012A0002DB100F0B9F9A0EB0800A84207D9A06A57
:1012B00040F00400A06284F824600320A4E70098B2
:1012C000401C0090B842E9D321686FF0120008601A
:1012D000A06A40F40070A06220688068C0F34240B9
:1012E00007280CD1207B50B9A06A20F48070A0623E
:1012F000A06AC00403D4A06A40F00100A0620020EC
:1013000082E700002800002024499224499224000A
:1013100070B5044690F8240001280DD0012084F80F
:1013200024002046FFF762FB02004FF0000005D0CA
:1013300084F82400104670BD022070BDA16A40F2FE
:101340000123994341F48071A1621F4D23681F4915
:10135000AB4218D10E6816F4702F14D0A66A46F46A
:101360008016A6620E68760505D5A66A26F4005694
:1013700046F48056A662A66AF6040AD5E66A26F006
:101380000606E66206E0A66A26F48016A6625E6895
:10139000E9E7E06284F824006FF00200186020683A
:1013A0008368C3F34243072B05D1A84208D10968DB
:1013B00011F4702F04D0816841F480118160B9E785
:1013C000816841F4A001F9E70028014004240140AC
:1013D00070B5044600F020F90546601C02D00448B0
:1013E0000078044400F018F9401BA042FAD370BD05
:1013F0001C00002070B54FF6FA75094E281A84B209
:1014000030684462304600F00BFF306801E0416A0A
:101410008CB2AC42FBD3BDE87040014800F028BF5D
:10142000FC0000202DE9F84FDFF8B891002409F105
:10143000040A0AF1040B23460F270BF1040EC9E03E
:101440000125A5402A40AA427DD1674ED1F804C0AB
:10145000ACEB0608B44532D014DCBCF1030F3AD033
:1014600009DCBCF1000F2AD0BCF1010F1CD0BCF18B
:10147000020F31D11DE0BCF1110F17D0BCF1120FDA
:101480002AD119E0B8F5881F19D006DCB8F5803FDD
:1014900015D0B8F5801F1FD111E0B8F5001F0ED090
:1014A000B8F5041F18D10AE0CB6815E0CB681B1D06
:1014B00012E0CB6808330FE0CB680C330CE08B688C
:1014C0002BB1012B4FF0080303D0456104E0042346
:1014D00002E0056100E00023FF2A01D8064601E092
:1014E00000F104064FEA840501D9A5F12005D6F8DC
:1014F000008007FA05FC28EA0C0803FA05F548EA1B
:101500000508C6F800804D68ED0062D5374DAE691C
:1015100046F00106AE61AD6924F0030605F0010551
:101520000095334D06EB050CDCF80850A607360F86
:1015300007FA06F825EA0805DFF8B880404503D128
:101540004FF0000817E044E0DFF8AC80404502D1DE
:101550004FF001080FE0DFF8A480404502D14FF0C2
:10156000020808E0DFF89880404502D14FF00308F8
:1015700001E04FF0040808FA06F848EA0508CCF83C
:1015800008804D68D9F80060ED034D4601D516433B
:1015900000E096432E604D68DAF80060AD035546D2
:1015A00001D5164300E096432E604D68DBF80060DD
:1015B000ED025D4601D5164300E096432E604D686E
:1015C000DEF80060AD02754601D5164300E0964393
:1015D0002E60641C0D682A46E5407FF431AFBDE8FB
:1015E000F88F0000000401400000111000100240BC
:1015F0000000014000080140000C014000100140C3
:10160000001401408068084000D0012070470AB1F2
:10161000016170470904FBE70148806870470000DA
:101620001C00002070B5040025D094F83D00002572
:1016300020B984F83C50204600F050F9242084F86A
:101640003D002068016821F0010101602068016807
:1016500041F4004101602068016821F4004101600B
:1016600000F064FB4D4A6168914201D84C4900E0AA
:101670004C49884201D2012070BD4B492368B0FB20
:10168000F1F15E6826F03F060E435E6063689342A8
:1016900006D94FF4967359434FF47A73B1FBF3F1C3
:1016A0002368491C1E6A26F03F06314319626168AF
:1016B000914210D84900401EB0FBF1F2521CC2F317
:1016C0000B02042A01D2042022E0B0FBF1F0401CFE
:1016D000C0F30B001CE0A268F2B301EBC10303EB03
:1016E0000116431EB3FBF6F35B1C43F480431B055A
:1016F00049D092B301EBC10202EB0111401EB0FBD5
:10170000F1F0401CC0F30B0040F4804040F4004076
:101710002168CA694CF6FF739A431043C861D4E943
:10172000071001432068026822F0C00211430160E3
:10173000D4E9030101432068826848F2FF339A43E9
:1017400011438160D4E9050108432168CA6822F089
:10175000FF021043C86001E00EE016E02068016857
:1017600041F0010101602564202084F83D002563DB
:1017700084F83E50002070BD01EB4106431EB3FBD0
:10178000F6F35B1CB3E70120C2E701EB4101401E09
:10179000B0FBF1F0401CC0F30B00B7E7A0860100DE
:1017A00080841E0000093D0040420F002DE9FF4FDC
:1017B00083B09A46DDE9119793460446DDF84080F0
:1017C000FFF72AFF054694F83D0020287FD1192312
:1017D000012240492046009501F066F8002876D1A4
:1017E00094F83C00012872D0012084F83C00206865
:1017F0000168C90703D1016841F001010160206857
:10180000016821F400610160212084F83D0040203E
:1018100084F83E0000262664C4F82480A4F82A90A8
:10182000608D20852C48E062CDE9007553465A460C
:101830002046049900F0BEFF70B930E02A463946D0
:10184000204601F0B0F858B1206C042804D120687B
:10185000016841F400710160012007B0BDE8F08F1C
:10186000606A216800780861606A401C6062218DAE
:10187000491E89B22185628D521E62852268536994
:10188000DB435B070BD469B100781061606A401CD0
:101890006062208D401E2085608D401E6085208DF9
:1018A0000028CBD12A463946204600F0D7FF002831
:1018B000CAD154F83D0B016841F400710160202049
:1018C00004F81E09E67766770020C6E7FFE70220E6
:1018D000C3E70000020010000000FFFF10B586B053
:1018E0000021009101910291039100680F49884203
:1018F0001AD10F4CA06940F00800A061A0696946A8
:1019000000F008000490C0200090122001900320F5
:1019100003900848FFF786FDE06940F40010E0619D
:10192000E06900F40010049006B010BD00540040BF
:1019300000100240000C0140024881680278114406
:10194000816070471C000020074810B5016841F015
:1019500010010160032000F067F8002000F006F895
:1019600000F024F8002010BD0020024070B50D4D9D
:1019700004464FF47A712878B1FBF0F00A490968FF
:10198000B1FBF0F000F0B8FB48B9102C07D20022F0
:101990002146501E00F028F800206C6070BD012028
:1019A00070BD00001C000020280000200C4808B575
:1019B000816941F001018161816901F001010091BA
:1019C000C16941F08051C161C06900F08050009050
:1019D0000448416821F0E06141F00071416008BDB8
:1019E0000010024000000140F0B40E4B1B680C4692
:1019F000C3F30223C3F10705042D00D90425191DE3
:101A0000072901D2002300E0DB1E012606FA05F1BA
:101A1000491E214099409E40761E16403143F0BC3D
:101A200001F04CBC0CED00E0064900F0070208682C
:101A30004FF6FF03184040EA0220034A10430860B3
:101A4000704700000CED00E00000FA0510B529A475
:101A500001461DCC86B08DE81D002AA02A4C0068E6
:101A600004900020012923D002293AD010291DD149
:101A700061682268D20119D5C1F38342C9031DF8F8
:101A8000020009D5616804AAC1F34041515C1F4AB4
:101A9000B2FBF1F1484301E01D4948436168490246
:101AA00004D440005FF00301B0FBF1F006B010BDBC
:101AB000226AC2F30121012903D1920701D5C8038B
:101AC000F4E7022905D1626A920702D549F640403F
:101AD000ECE70329EAD121688903E7D54FF22440D6
:101AE000E4E700F033F96168C1F38131491C490032
:101AF000DAE7000002030405060708090A0B0C0DCB
:101B00000E0F1010010200000010024000127A00B7
:101B100000093D002DE9F84305460078354CC00723
:101B200054D0E0690026C00008D4E06940F080503D
:101B3000E061E069012600F0805000902E480168C5
:101B4000C90512D40168804641F480710160FFF735
:101B500063FD074605E000BFFFF75EFDC01B64287C
:101B600023D8D8F80000C005F6D5206A10F44070DC
:101B700021D0A98801F4407181421CD0206A1F49FC
:101B8000012220F440700A6000220A602062C0072F
:101B900011D0FFF741FD074641F2883808E000BF49
:101BA000FFF73AFDC11B414502D90320BDE8F88388
:101BB000206A8007F4D5206A696820F440700843E1
:101BC00020621EB1E06920F08050E0612878800733
:101BD00005D56068A96820F4404008436060287813
:101BE000C00605D56068E96820F48000084360609D
:101BF0000020DBE700100240007000404004424239
:101C00002DE9F0470F46050061D0434E306800F0E3
:101C10000700B84209D2306820F00700384330602E
:101C2000306800F00700B84251D128683B4C81076A
:101C300012D5400703D5606840F4E0606060287802
:101C4000000703D5606840F4605060606068A96870
:101C500020F0F000084360602878C00728D068684A
:101C6000012810D02168022810D0890700292EDA17
:101C7000616821F0030101436160FFF7CDFC8046FC
:101C800041F288390DE021688903EFE78901EDE72A
:101C9000FFF7C2FCA0EB0801494502D90320BDE8CB
:101CA000F0876068696800F00C00B0EB810FEFD13D
:101CB000306800F00700B8420BD9306820F0070008
:101CC00038433060306800F00700B84201D001208E
:101CD000E5E72878400705D56068E96820F4E0600A
:101CE000084360602878000706D56068296920F4F9
:101CF000605040EAC100606000F038F86168084A4E
:101D0000C1F30311515CC8400649086006480068E9
:101D1000FFF72CFE0020C2E7002002400010024026
:101D2000165A000828000020200000200448054919
:101D300000684968044AC1F30221515CC8407047F9
:101D40002800002000100240265A000804480549D7
:101D500000684968044AC1F3C221515CC840704719
:101D60002800002000100240265A000812A185B069
:101D70000FC98DE80F0014A0144A00680490516840
:101D8000134801F00C03042B10D0082B0ED1C1F323
:101D90008343C9031DF803000AD5516804AAC1F39F
:101DA0004041515C0A4A5043B0FBF1F005B0704726
:101DB00008494843FAE7000002030405060708093A
:101DC0000A0B0C0D0E0F1010010200000010024053
:101DD00000127A0000093D002DE9F84F040070D090
:101DE0002078C04DC00749D06868C0F38100012841
:101DF00007D06868C0F38100022809D16868C00371
:101E000006D52868800339D560680028E7D035E01A
:101E10006068B0F5803F0BD010B1B0F5A02F11D0A5
:101E2000286820F480302860286820F4802002E0B0
:101E3000286840F480302860606890B1FFF7ECFBC0
:101E400006460AE0286840F480202860F0E700BFDA
:101E5000FFF7E2FB801B642873D828688003F7D55E
:101E60000CE0FFF7D9FB064605E000BFFFF7D4FB07
:101E7000801B6428F0D828688003F7D420789A4E15
:101E800080074FF001094FF0000839D5686810F05D
:101E90000C0F07D06868C0F38100022809D1686878
:101EA000C00306D42868800714D52069012808D10A
:101EB00010E02069B0B1C6F80090FFF7ADFB07460F
:101EC00005E00AE1FFF7A8FBC01B0228C4D8286878
:101ED0008007F7D52868616920F0F80040EAC10062
:101EE00028600DE0C6F80080FFF796FB074604E087
:101EF000FFF792FBC01B022823D828688007F7D47D
:101F0000207800072CD57948A169D9B1C0F8009094
:101F1000FFF782FB074604E0FFF77EFBC01B0228A9
:101F20000FD8686A8007F7D571484FF4FA510068F6
:101F3000B0FBF1F0009000BF0098411E0091FAD272
:101F40000EE080E0C0F80080FFF766FB074604E083
:101F5000FFF762FBC01B022875D8686A8007F7D4B8
:101F60002078400760D5E8690027C00008D4E869F8
:101F700040F08050E861E869012700F0805000904F
:101F80005C480168C90513D40168834641F4807137
:101F90000160FFF741FB824606E000BFFFF73CFB14
:101FA000A0EB0A0064284ED8DBF80000C005F5D588
:101FB000E06801280AD008B1052813D0286A20F06B
:101FC00001002862286A20F0040002E0286A40F03C
:101FD00001002862E06841F2883B98B1FFF71CFBE2
:101FE00082460BE0286A40F004002862EEE700BF5A
:101FF000FFF712FBA0EB0A0159455AD8286A80075F
:10200000F6D50CE0FFF708FB824605E0FFF704FB7E
:10201000A0EB0A0159454CD8286A8007F6D41FB1B5
:10202000E86920F08050E861E06988B36968C1F32D
:102030008101022944D00228C6F8608004D0FFF74D
:10204000EBFA044638E034E0FFF7E6FA074604E02E
:10205000FFF7E2FAC01B02282BD828688001F7D4CA
:10206000206AB0F5803F05D16868A16820F400308F
:1020700008436860D4E908010843696821F47411D1
:1020800008436860C6F86090FFF7C6FA044606E0A9
:1020900025E000BFFFF7C0FA001B022809D8286816
:1020A0008001F7D51BE000BFFFF7B6FA001B02283E
:1020B00002D90320BDE8F88F28688001F4D40EE02F
:1020C0000128F7D06868226A00F48031914204D177
:1020D000616A00F47010884201D00120EAE7002014
:1020E000E8E7000000100240000042428004424243
:1020F000280000200070004010B5401EB0F1807F25
:1021000001D3012010BD4FF0E02460610F21601762
:1021100001F0D4F80020A06107202061002010BD4C
:1021200070B590F83C20012A26D0012480F83C406C
:10213000022280F83D2003685A689D6822F07006EC
:102140000A6832435A600D4B02689A4208D0B2F1D5
:10215000804F05D00A4B9A4202D00A4B9A4204D1D2
:10216000496825F080031943916080F83D400021C3
:1021700080F83C10084670BD022070BD002C014064
:10218000000400400008004010B5040003D094F89B
:102190003D0010B107E0012010BD002084F83C0094
:1021A000204600F01FF8022084F83D00211D206821
:1021B00000F0AEFE012084F8460084F83E0084F86A
:1021C0003F0084F8400084F8410084F8420084F81D
:1021D000430084F8440084F8450084F83D00002062
:1021E00010BD000008B501680B48B1F1804F0BD05D
:1021F0000A4A914207D1C16941F00201C161C06937
:1022000000F00200009008BDC16941F00101C16108
:10221000C06900F00100F5E7001002400004004032
:1022200090F83D10012901D001207047022180F86B
:102230003D1000680B49884208D0B0F1804F05D0AE
:102240000949884202D00949884204D1816801F0D5
:102250000701062903D0016841F001010160002057
:1022600070470000002C01400004004000080040BE
:1022700001680A6A41F211131A4207D10A6A9B10D7
:102280001A4203D10A6822F001020A60012180F893
:102290003D100020704770B5044690F83C000128BE
:1022A00017D0012584F83C50022084F83D002068B6
:1022B000826822F0770222F47F4282600868502808
:1022C00030D00DDC20284DD005DC98B310283BD150
:1022D00048E0022070BD302844D0402834D139E095
:1022E000602828D0702806D0B0F5805F2CD0B0F5DB
:1022F000005F29D10AE0CB68D1E90121206800F014
:102300004AFE2068816841F0770109E0CB68D1E995
:102310000121206800F03FFE2068816841F480417F
:10232000816011E0CA684968206800F0E9FE502128
:10233000206807E016E0CA684968206800F0F1FEEE
:102340006021206800F031FE84F83D50002084F8C0
:102350003C0070BDCA684968206800F0D1FE402189
:102360002068EFE7226801461046EBE700B585B02C
:10237000002100910191029103910068B0F1804F1A
:102380001BD10F48816941F0040181618069694670
:1023900000F00400049048F2040000900220019034
:1023A00003900848FFF73EF80748416821F4407160
:1023B00041F0E06141F48071416005B000BD000072
:1023C00000100240000801400000014070B50446C2
:1023D00090F83C000D4601280AD0012084F83C000A
:1023E00042B1042A18D0082A2AD00C2A4DD139E04B
:1023F000022070BD206800F0E1FD2068816941F095
:10240000080181612068816921F0040181612068EF
:1024100081692A69114311E0206800F0F7FD206806
:10242000816941F4006181612068816921F48061E2
:102430008161206881692A6941EA0221816124E081
:10244000206800F00FFE2068C16941F00801C161F9
:102450002068C16921F00401C1612068C1692A694D
:10246000114311E0206800F029FE2068C16941F4A1
:102470000061C1612068C16921F48061C161206887
:10248000C1692A6941EA0221C161002084F83C0047
:1024900070BD10B5040003D094F83D0010B107E002
:1024A000012010BD002084F83C00204600F01EF8FA
:1024B000022084F83D00211D206800F029FD012044
:1024C00084F8460084F83E0084F83F0084F8400019
:1024D00084F8410084F8420084F8430084F8440002
:1024E00084F8450084F83D00002010BD70470000CE
:1024F00010B50446022249B104290ED0082913D090
:1025000094F84100012816D0012010BD94F83E0037
:102510000128F9D184F83E200FE094F83F0001280B
:10252000F2D184F83F2008E094F840000128EBD174
:1025300084F8402001E084F841200122206800F066
:102540001DFD0F492068884203D1426C42F40042CD
:1025500042642068884208D0B0F1804F05D0094914
:10256000884202D00849884204D1816801F00701FD
:10257000062903D0016841F001010160002010BD6F
:10258000002C0140000400400008004030B5044623
:102590000D460068002200F0F1FC174B41F21111CA
:1025A00020688A10984209D1036A0B4206D1036A57
:1025B000134203D1436C23F4004343642068036A4D
:1025C0000B4206D1016A114203D1016821F00101D9
:1025D000016001203DB1042D08D0082D09D084F8F8
:1025E0004100002030BD84F83E00FAE784F83F0047
:1025F000F7E784F84000F4E7002C014070B50400D0
:1026000004D094F83900002510B106E0012070BD17
:1026100084F83850204600F023F8242084F839004C
:102620002068C16821F40051C160204600F08CFD93
:102630002068016921F4904101612068416921F01D
:102640002A0141612068C16841F40051C160E5631D
:10265000202084F8390084F83A00002070BD000082
:1026600030B585B00024009401940294039400686E
:102670001449884224D11448816941F48041816120
:10268000816901F480410491816941F00401816113
:1026900080690E4D00F0040004904FF4007000902B
:1026A000022001900320039069462846FEF7BAFEF7
:1026B0002815CDE90004694628460294FEF7B2FECB
:1026C00005B030BD00380140001002400008014054
:1026D0002DE9F843044690F839001F4616460D468A
:1026E00020284CD1C5B1BEB194F83800012846D09D
:1026F000012084F838004FF00008C4F83C80212005
:1027000084F83900FEF788FFA6848146E684A06835
:10271000B0F5805F03D004E00120BDE8F8832069B4
:1027200028B12E465FF0000584F838800EE00026C0
:10273000FAE78021204600F063FDA0B9AEB116F89B
:10274000010B21684860E08C401EE084E08C4B4621
:102750004FF0000200970028EBD14FF040012046D7
:1027600000F04EFD30B10320D7E735F8020BC0F37F
:102770000800E6E7202084F839000020CDE7022099
:10278000CBE7FEE701684A69D24352050FD46FF4E4
:1027900080624A61002140F8301F20224273817319
:1027A000026942F0040202610173012070470020B7
:1027B000704700002DE9F843044600680D46DDE946
:1027C000089701689846164641F4807101604B46AF
:1027D00000224FF001112046009700F065F848B143
:1027E00020680068C00502D54FF400702064032003
:1027F000BDE8F883216805F0FE0008613B464A46C3
:102800001549204600F084F888B92068416980693C
:1028100000903A464946204600F0C5F848B1206C81
:10282000042804D12068016841F40071016001208E
:10283000DEE7F5B2B8F1010F09D02168300A08616E
:102840003A464946204600F0AEF80028E7D1206815
:1028500005610020CCE700000200010070B51646BB
:102860000D4604460DE02046FFF78CFF08B101201D
:1028700070BD681C05D0FEF7CFFE801BA84207D8AC
:1028800035B120684069C0434007ECD4002070BDDA
:10289000002044F8300F20216173A073216941F0BA
:1028A000200121612073E2E72DE9F0471E469046A2
:1028B0000D460446C1F30747DDF8209008E0701C80
:1028C00006D0FEF7A9FEA0EB0900B0420FD876B102
:1028D0002068012F18D0806925EA00000004000C50
:1028E00014D000214145EAD00020BDE8F087002047
:1028F00044F8300F20216173A073216941F0200159
:10290000216120730120F0E74069E5E70121E9E753
:102910002DE9F0479A4691460E46044600254FF0B1
:102920002008C1F3074725E020684069C0434005FF
:1029300014D42068016841F40071016021686FF4CB
:1029400080604861256384F83D8084F83E50206CA7
:1029500040F00400206484F83C501FE0B9F1FF3FD0
:1029600008D0FEF759FEA0EB0A0149450CD8B9F191
:10297000000F09D02068012F13D0806926EA0000DB
:102980000004000C0BD0CFE744F8305F84F80D80D2
:10299000A573206940F02000206125730120BDE867
:1029A000F0874069EAE770B516460D4604460DE02B
:1029B0002046FFF7E7FE08B1012070BD681C05D076
:1029C000FEF72AFE801BA84207D835B1206840696F
:1029D000C0430006ECD4002070BD002044F8300F46
:1029E00020216173A073216941F0200121612073CE
:1029F000E2E700003EB500241048009401940294E0
:102A00000D498460016004730475012505614FF46C
:102A100060214460C161FEF729FB08B1FEF7A2FA0C
:102A20000095CDE9015469460448FEF79DFA002857
:102A300001D0FEF797FA3EBD00240140300000208F
:102A40002DE9F04385B000200090019002900390A2
:102A50002B48816941F010018161816901F0100109
:102A60000491816941F020018161816901F02001B7
:102A70000491816941F004018161816901F00401DF
:102A80000491816941F0080181618069DFF87480F7
:102A900000F008000490002241F2C8014046FEF711
:102AA000B6FDDFF86490002208214846FEF7AFFD2E
:102AB0000826012402250096CDE9014569464046D5
:102AC0000395FEF7AFFCC020CDE900040327CDE954
:102AD000024769464046FEF7A5FC20038DE8B10099
:102AE00069464046FEF79EFC0096CDE901456946E1
:102AF00048460395FEF796FC05B0BDE8F08300005C
:102B00000010024000080140000C01400D4810B5C3
:102B10000B4901600C49416000214FF48042816003
:102B2000C0E9031241618161C1610162FEF77AFD72
:102B3000002803D0BDE81040FEF714BA10BD000015
:102B40000054004060000020A086010010B58EB047
:102B500000240794089409940A940B941C21684655
:102B60000C94FDF7F8FA22484FF08041016041F6DD
:102B70001F41C0E901146421C0E903148461FFF717
:102B800003FB08B1FEF7EEF94FF48050079007A958
:102B90001748FFF780FB08B1FEF7E4F91448FFF788
:102BA00078FC08B1FEF7DEF90B940BA910480C94E1
:102BB000FFF7B6FA08B1FEF7D5F960200090322091
:102BC000CDE901040022694609480494FFF7FEFBA1
:102BD00008B1FEF7C7F9082269460548FFF7F6FB7A
:102BE00008B1FEF7BFF90248FFF7C0FB0EB010BDF9
:102BF000B400002010B586B000241748009401945A
:102C00000294039404941349059401604821C0E997
:102C100001144FF6FF71C0E903148461FFF7B4FAA1
:102C200008B1FEF79FF94FF48050009069460A48BA
:102C3000FFF731FB08B1FEF795F9049404A90648A3
:102C40000594FFF76DFA002801D0FEF78BF906B066
:102C500010BD000000040040FC0000200C4810B52E
:102C60000A4901604FF4E1314160002181600C228A
:102C7000C160C0E904128161C161FFF7BFFC002897
:102C800003D0BDE81040FEF76DB910BD003801401B
:102C900044010020FEE7FEE770B5002404F1B00017
:102CA000C0B200F0CFF8002000F0CCF8102000F007
:102CB000C9F80025002000F0D7F86D1CEDB2802D7A
:102CC000F8D3641CE4B2082CE8D370BD10B5C8205A
:102CD000FEF77EFBBDE8104000F0C6BA10B5044612
:102CE000B031C8B200F0AEF8102040EA141000F085
:102CF000A9F804F00F00BDE8104000F0A3B80000F0
:102D00002DE9F041203A00240D468046D6B27F28B6
:102D100003D900208D1C8046EDB2102B29460FD020
:102D2000FFF7DCFF164906EB460001EB4005285D86
:102D300000F09AF8641CE4B2062CF8D3BDE8F081E8
:102D4000FFF7CCFF0F4F00BF04EB0610385C00F01C
:102D50008BF8641CE4B2082CF6D36D1CE9B2404633
:102D6000FFF7BCFF5FF0000404EB06103844007A64
:102D700000F07AF8641CE4B2082CF5D3DEE700001A
:102D800020400008484200082DE9F04115460E4653
:102D90000746FFF7A3FF0F49C5EB0520002401EB11
:102DA0004005285D00F060F8641CE4B2202CF8D3E4
:102DB000761CF1B23846FFF791FF0024281990F8ED
:102DC000FF0000F051F8641CE4B2202CF6D3BDE8FB
:102DD000F0810000284800082DE9F05F0026DDF8AA
:102DE00028901D4692468B46804634464FEA590746
:102DF00023E0281B401EC1B20A2001F009F9BAFBEA
:102E0000F0F00A21B0FBF1F201FB120026B9691EB5
:102E10008C4201DA38B101263030C2B207FB04809F
:102E2000C0B24B4604E007FB0480C0B24B462022F0
:102E30005946FFF765FF641CE4B2AC42D9D3BDE844
:102E4000F09F000001B584B001214FF4807204A806
:102E50008DE807000B46002278210248FEF7A6FC09
:102E600005B000BD6000002001B584B001214FF421
:102E7000807204A88DE807000B46402278210248A2
:102E8000FEF794FC05B000BD60000020704770475D
:102E9000FEF752BD30B593B028216846FDF75BF9C7
:102EA00014210AA8FDF757F9002501200F95109568
:102EB0001195010412958DE8230004904FF4E01061
:102EC000CDE90810022407946846FEF785FF08B193
:102ED00072B6FEE70AA90F2081E831004FF4806046
:102EE000CDE90D0502210AA8FEF78AFE08B172B6E7
:102EF000FEE74FF4004011900F940FA8FEF70AFE72
:102F0000002801D072B6FEE713B030BD7047000054
:102F1000F0B50268164B174C174D4FF0804798429A
:102F200005D0B84203D0A04201D0A84203D122F07C
:102F300070064A683243984205D0B84203D0A04296
:102F400001D0A84203D122F44074CA6822434C69DC
:102F500022F08002224302608A68C2620A688262AA
:102F6000984201D10969016301214161F0BD00006E
:102F7000002C0140000400400008004010B501F0A2
:102F80001F030121046A99408C430462016A9A403C
:102F90001143016210BD10B5846842EA032224F493
:102FA0007F440A432243826010BD826822F070028F
:102FB0000A4342F0070181607047000030B5026AA1
:102FC00022F001020262026A4368846924F07305F8
:102FD0000C682C4322F002058A682A430A4DA84255
:102FE0000BD122F00805CA6823F440732A434D69C7
:102FF00022F004021D438B692B43436084614968BE
:103000004163026230BD0000002C014030B5026A0D
:1030100022F010020262026A436884690D6824F497
:10302000E64444EA05248D6822F0200242EA0512B3
:103030000B4DA8420ED1CD6822F0800242EA051263
:103040004D6923F4406343EA85038D6922F0400211
:1030500043EA85034360846149688163026230BD4D
:10306000002C014030B5026A22F480720262036AC9
:103070004268C46923F4007324F073050C682C4380
:103080008D6843EA05230C4DA8420ED1CD6823F488
:10309000006343EA05234D6922F4405242EA0512D7
:1030A0008D6923F4806342EA05124260C461496875
:1030B000C163036230BD0000002C014030B5026ADC
:1030C00022F480520262046A4268C3690D6823F4E4
:1030D000E64343EA05238D6824F4005444EA0534AA
:1030E000064DA84204D14D6922F4804242EA85127D
:1030F0004260C36149680164046230BD002C014034
:1031000010B5036A046A24F001040462846924F09F
:10311000F00444EA021423F00A020A4384610262C2
:1031200010BD10B5036A23F0100303628369046ABB
:1031300023F4704343EA023224F0A00343EA01116E
:103140008261016210BD000070B50446006801692B
:10315000E26821F44051114301612169A0680843EC
:10316000616908432168CA6841F20C639A430243CB
:10317000CA6020684169A26921F44071114341612C
:103180001E492068884202D1FEF7E0FD01E0FEF70B
:10319000CDFD00EBC00101EB0012606864218000EE
:1031A000B2FBF0F3B3FBF1F36FF018067343B2FB1D
:1031B000F0F5B2FBF0F605EB8305322303EB0515C2
:1031C000B5FBF1F5B6FBF1F605F0F00505EB0615DC
:1031D000B2FBF0F6B2FBF0F0B0FBF1F06FF01802CA
:1031E000504306EB800003EB0010B0FBF1F02168C8
:1031F00000F00F002844886070BD000000380140D6
:103200002DE9F041984617460E460446069D1DE0FE
:10321000681C1BD02DB1FEF7FFF9A0EB0800A842F7
:1032200014D92068C16821F4D071C1602068416957
:1032300021F001014161202084F8390084F83A002E
:10324000002084F838000320BDE8F0812068006881
:1032500036EA000004D00020B842D9D00020F3E7BD
:103260000120F9E7FEE70000FEB50024094F4FF406
:10327000807501263819CDE9000601230022782146
:1032800002950548FEF792FA641CE4B21B2CF1D3B8
:10329000FEBD000000000020600000200FB4054BC0
:1032A00010B503A9044A029800F0EAF810BC5DF8D2
:1032B00014FB0000893B00082C0000200907090EC0
:1032C000002804DB00F1E02080F80014704700F0D3
:1032D0000F0000F1E02080F8141D704702E008C8DC
:1032E000121F08C1002AFAD170477047002001E080
:1032F00001C1121F002AFBD1704700002DE9FF5FBA
:1033000082B00021DDE90430020DDDF840B0034356
:1033100018D044F61050A2F2FF324243151411980F
:1033200001281FD0A5EB0B00401C5FEA000A4FF0FC
:1033300000064E4FDFF83891B046504615D5CAF119
:10334000000413E0119801244AA3012801D16FEA77
:103350000B010298119AC0E90031C0E9024206B09F
:10336000BDE8F09FCBF10000DFE704460021404AB2
:10337000491842EB0450CDE9001012E0E00707D0F5
:1033800032463B4640464946FCF7B8FF80468946F0
:1033900032463B4610461946FCF7B0FF06460F463C
:1033A0006410002CEAD1DDE90401DDE90023BAF163
:1033B000000F06DAFCF7A2FF42464B46FCF79EFFE1
:1033C00005E0FDF719FA42464B46FDF715FA0446AB
:1033D0000E460022284BFDF797FA03D84FF0FF3036
:1033E000014607E00022254B20463146FDF75DF9F6
:1033F000FDF771FA102409E0002C0ADB0A220023F1
:10340000FDF78EF8039B30321A55641E50EA010214
:10341000F2D1641C039AC4F111031444119A012AD5
:1034200003D0012208430DD10AE0084304D0002054
:103430004FF0110B119072E7A3EB0B056D1E0DE021
:103440005B4504DD4FF0000205F1010504E003DAFD
:103450004FF00002A5F10105002AECD00298119965
:10346000C0E90231C0E9004579E7000000001440DE
:103470000000F03F300000000000F0430000E03F9B
:103480002DE9FF4F95B09A46884606460025EEE1A5
:10349000252877D100242746F94A0121039400E02A
:1034A000044316F8013F203B01FA03F01042F7D124
:1034B00030782A2811D06FF02F033078A0F1300235
:1034C000092A16D8039A44F0020402EB820203EBA5
:1034D00042021044761C0390EFE758F8042B039245
:1034E000002A03DA504244F40054039044F00204EA
:1034F000761C30782E2816D116F8010F44F00404FB
:103500002A280DD06FF02F023078A0F13003092B5C
:1035100009D807EB870302EB4303C718761CF3E7D0
:1035200058F8047B761C30786C280FD006DC4C28C9
:1035300017D068280DD06A2814D104E0742810D060
:103540007A280FD10DE044F400140AE044F480140A
:1035500001E044F440147278824202D104F58014F0
:10356000761C761C307866280BD013DC582877D070
:1035700009DC002875D04528F6D04628F4D0472825
:103580001AD193E118E0632835D0642879D06528F2
:1035900012D18BE1702873D008DC6728F1D069283C
:1035A0006FD06E280DD06F2806D1ACE073282CD0D8
:1035B000752874D0782853D05246179990476D1CBF
:1035C00054E1C4F30250022809D003280DD0D8F8E2
:1035D000001004280DD00D6008F1040846E1D8F869
:1035E0000010EA17C1E90052F6E7D8F800100D8084
:1035F000F2E70D70F0E718F8041B8DF800100020BA
:103600008DF80100EB46012003E058F804BB4FF0B1
:10361000FF3061074FF0000102D40DE009F1010114
:103620008946B9420FDA8145F8DB1BF809100029F9
:10363000F4D108E009F1010189468142FADB1BF867
:1036400009100029F6D103985346A0EB090721463B
:103650003846179A00F080FA284400EB090507E085
:1036600044E008E10DE01BF8010B52461799904722
:10367000B9F10109F7D2534621463846179AF2E0CC
:1036800039E00A21C4F302524FF0000B0091022AE4
:1036900006D058F8040BC117032A09D00AE023E02A
:1036A00008F1070020F00702F2E80201904605E069
:1036B00000B2C117042A01D140B2C117002906DAAD
:1036C0000A460021404261EB02012D2202E0220560
:1036D00004D52B228DF80420012203E0E20701D05B
:1036E0002022F7E7914657E00A2100E010214FF031
:1036F000000B00910BE010214FF0000B44F004048C
:103700000827009103E008204FF0000B0090C4F35D
:103710000252022A05D058F8040B0021032A08D0CF
:1037200008E008F1070020F00702F2E802019046E5
:1037300003E080B2042A00D1C0B24FF00009220792
:103740002AD53278702A07D0DDF800C08CF0100C32
:103750005CEA0B0C05D00EE040228DF8042001221B
:1037600008E050EA010306D030238DF804308DF8CC
:10377000052002229146009B83F0080353EA0B03C5
:103780000AD150EA010201D1620705D530228DF835
:1037900004204FF001097F1E3278582A04D039A244
:1037A0000C920CAA02920BE03BA2F9E75B46009A4E
:1037B000FCF7B6FE0C9B9B5C029A521E02921370A1
:1037C00050EA0102F2D1029804A9081A00F1200B74
:1037D000600702D524F4803400E001275F4502DD54
:1037E000A7EB0B0000E0002000EB0B01009003981A
:1037F0004944401A0390E00306D453462146179AE1
:10380000039800F0A9F90544002706E001A85246F4
:10381000C05D179990476D1C7F1C4F45F6DBE00398
:103820000CD553462146179A039800F095F90544A4
:1038300004E030205246179990476D1C0099481EAD
:1038400000900029F5DC08E00298029952460078C1
:10385000491C0291179990476D1CBBF10001ABF117
:10386000010BF1DC5BE100F065F90544761C307872
:1038700000287FF40DAE19B02846BDE8F08F000097
:103880000928010030313233343536373839616236
:1038900063646566000000003031323334353637FA
:1038A000383941424344454600000000600700D4D7
:1038B000062708F1070020F00700F0E80223804601
:1038C00003F0004C5FEA0C0001D097A009E020054E
:1038D00001D596A005E0E00701D095A001E0AFF288
:1038E0004C001390307823F0004365280CD006DCA0
:1038F000452809D046281DD047287FD13BE06628BF
:1039000018D067287AD136E00021112F01DB112071
:1039100000E0781CCDE9000104A90CA8FFF7EEFC3B
:10392000DDE90D010C9A4FF0000B07F1010910922F
:1039300000914EE04FF000400097CDE9011004A93E
:103940000CA8FFF7DBFCDDE90D020C9B0F994FF093
:10395000000B91461093009211B9791C00EB0109FC
:10396000B7EB090003D4C0F1FF3B07F10109A9EB54
:103970000700019042E0012F00DA01270021112FFA
:1039800001DD112000E03846CDE9000104A90CA8B2
:10399000FFF7B4FCDDE90D010C9A00914FF0000B2C
:1039A000B946109221070FD4009A4A4503DA91468E
:1039B00001E0A9F10109B9F1010F05DD109AA9F1A2
:1039C0000101515C3029F4D0B84202DA10F1040F41
:1039D00003DA0121CDE9011010E0002803DC834463
:1039E000A9EB000102E0411C494500DD8946A0EB3E
:1039F0000B00401C01904FF000400290200705D4BE
:103A00000198484502DB4FF0FF30019000208DF80F
:103A10004B0002980DF14B07B0F1004F25D002206A
:103A20000C902B200D90029800280CDA4042029056
:103A30002D200D9007E00A210298FCF75BFD303144
:103A4000029007F8011D0C99481E0C900029F2DC29
:103A500002980028EFD1791E0D980870307800F098
:103A6000200040F0450007F8020D11A8C01BC01D42
:103A700002901398007800B1012000EB0901019831
:103A800001EBE071029801440398401A401E039034
:103A9000E00306D453462146179A039800F05CF8D9
:103AA00005441398007818B15246179990476D1C39
:103AB000E00323D553462146179A039800F04CF8AB
:103AC00005441BE0BBF1000F07DB0098584504DDFF
:103AD0001098179910F80B0001E017993020524602
:103AE000904701980BF1010B401E05F10105019073
:103AF00004D12E205246179990476D1CB9F1000150
:103B0000A9F10109DEDC05E017F8010B524617990F
:103B100090476D1C0299481E02900029F4DC534620
:103B20002146179A03989EE62D0000002B00000006
:103B3000200000002DE9F041044600251E461746EE
:103B4000880404D405E039462020B0476D1C641E6B
:103B5000F9D52846BDE8F0812DE9F041044600255D
:103B60001E469046C80301D5302700E02027880470
:103B700004D505E041463846B0476D1C641EF9D5B2
:103B80002846BDE8F081000013B54FF6FF7301220F
:103B900069460248FEF79CFD00981CBD44010020C8
:103BA0009CB0E8484FF0000B0490E7485C465D4647
:103BB0000390FDF7C9FEFFF76DF9FEF741FFFEF731
:103BC00019FFFEF7A3FFFEF7C1FFFFF713F8FFF79A
:103BD00045F8FFF77BF8FFF75FF80021084602225F
:103BE000FFF7D2F81026002103223046FFF7CCF869
:103BF00000214FF020090A464846FFF7C5F84FF06C
:103C0000300A002101225046FFF7BEF84FF040086D
:103C1000002110233A224046FFF772F802270020C5
:103C200004223946FFF7B0F8052239463046FFF73F
:103C3000ABF8002239464846FFF7A6F8012239467C
:103C40005046FFF7A1F810233A2239464046FFF7C5
:103C500057F8042700203A463946FFF795F8062220
:103C600039463046FFF790F8082239464846FFF7B4
:103C70008BF810233A2239465046FFF741F80627C1
:103C8000002004223946FFF77FF8072239463046E4
:103C9000FFF77AF8082239464846FFF775F81023EF
:103CA0003A2239465046FFF72BF84FF4FA7705E0F1
:103CB000A6A0FFF7F3FA3846FDF78AFBFCF770FF82
:103CC00018B1FDF797F80028F2D1A7A0FFF7E6FAA0
:103CD00004F140001A9008381990303018900838D4
:103CE00004F15807AE1C05F1060905F10408483433
:103CF000CDF85C000BF1010BA048FDF709FB0A2190
:103D00009E48FDF76DFA5FEACB707DD1FCF7F8FEB7
:103D10000290FDF71FF801900298FCF78EFB0890C7
:103D2000FCF775FB0299FCF776FA9549FCF776FAF1
:103D3000FCF783FB07900198FCF77FFB0690FCF7EC
:103D400066FB0199FCF767FA8D49FCF767FAFCF707
:103D500074FB0C908948FDF785F980B21B90FCF745
:103D60005FFB4FF06632874BFCF7C8FAFCF791FB1C
:103D700082468349FCF784FA0D905046FCF75DFBC0
:103D80000B90FCF744FB5146FCF745FA7E49FCF7E3
:103D900045FAFCF752FB0A900D98FCF74EFB099090
:103DA000FCF735FB0D99FCF736FA7749FCF736FA44
:103DB000FCF743FB059075A0FFF770FA0298FCF73B
:103DC00055FB02460B4678A0FFF768FA0198FCF70E
:103DD0004DFB02460B4679A0FFF760FA7CA01B99C9
:103DE000FFF75CFA5046FCF741FB02460B467DA00C
:103DF000FFF754FA0D98FCF739FB02460B467EA0FC
:103E0000FFF74CFA61A000E001E0FFF747FA4FF03E
:103E1000100A294620460223CDF800A0089AFEF792
:103E2000DBFF2946384610232E22FEF769FF29467C
:103E3000CDF800A00123079A1798FEF7CDFF294679
:103E4000102343221898FEF75BFF314620460223D9
:103E5000CDF800A0069AFEF7BFFF31463846102382
:103E60002E22FEF74DFF3146CDF800A001230C9A1B
:103E70001798FEF7B1FF3146102343221898FEF73A
:103E80003FFFCDF800A0414601230B9A1998FEF799
:103E9000A3FF414610232E221A98FEF731FFCDF8DA
:103EA00000A04146204602230A9AFEF795FF4146AC
:103EB000384610235622FEF723FFCDF800A04946CE
:103EC0000123099A1998FEF787FF494610232E22ED
:103ED0001A98FEF715FFCDF800A0494620460223A8
:103EE000059AFEF779FF4946384610234122FEF72E
:103EF00007FFDDE90201FCF7F3FA04D90399019801
:103F0000FCF7EEFA04D8FDF725F8FCF7B9FD14E04C
:103F100004990198FCF7DAFA04D904990198FCF79E
:103F2000D5FA02D8FCF79AFD07E000213748FEF7E2
:103F30002DFB08213548FEF729FB4FF47A70FDF779
:103F400047FAD7E60000A0400000A04144533138B2
:103F5000423230BDD3C8EBCAA7B0DCA3ACC7EBD6A6
:103F6000D8CAD4210D0A000044533138423230BD42
:103F7000D3C8EBB3C9B9A6210D0A00003000002058
:103F80000000204166664A3F0000C8423D3D3D3D7D
:103F90003D3D3D3D3D3D3D3D3D3D3D3D3D3D3D3D51
:103FA0003D3D0D0A00000000BBB7BEB3CEC2B6C88F
:103FB000CEAAA3BA252E3166430D0A00B5E7B3D8C1
:103FC000CEC2B6C8CEAAA3BA252E3166430D0A00CA
:103FD000414443B2C9BCAFD6B5CEAA3A2025640D40
:103FE0000A000000B5E7D1B9D6B5CEAA3A20252EF1
:103FF0003266560D0A000000B5E7C1F7D6B5CEAA65
:104000003A20252E3266410D0A000000B40000203F
:104010000246012000E05043491EC9B2FBD270475E
:104020000000000000000000002F0000000007005A
:10403000070000147F147F1400242A7F2A120062D4
:104040006408132300364955225000000503000080
:1040500000001C224100000041221C000014083E08
:1040600008140008083E0808000000A060000008CE
:104070000808080800006060000000201008040222
:10408000003E5149453E0000427F400000426151E0
:104090004946002141454B31001814127F1000277A
:1040A00045454539003C4A4949300001710905033D
:1040B00000364949493600064949291E000036366E
:1040C00000000000563600000008142241000014D1
:1040D00014141414000041221408000201510906AE
:1040E00000324959513E007C1211127C007F49492F
:1040F0004936003E41414122007F4141221C007F60
:1041000049494941007F09090901003E4149497A6D
:10411000007F0808087F0000417F410000204041E7
:104120003F01007F08142241007F40404040007F53
:10413000020C027F007F0408107F003E4141413E97
:10414000007F09090906003E4151215E007F0919DF
:1041500029460046494949310001017F0101003FDC
:104160004040403F001F2040201F003F4038403F5C
:1041700000631408146300070870080700615149C0
:10418000454300007F41410000552A552A55000053
:1041900041417F00000402010204004040404040D1
:1041A000000001020400002054545478007F484469
:1041B000443800384444442000384444487F0038A0
:1041C0005454541800087E0901020018A4A4A47CC9
:1041D000007F080404780000447D40000040808493
:1041E0007D00007F102844000000417F4000007CDB
:1041F00004180478007C08040478003844444438E7
:1042000000FC242424180018242418FC007C080432
:10421000040800485454542000043F444020003C0B
:104220004040207C001C2040201C003C4030403C92
:10423000004428102844001CA0A0A07C0044645422
:104240004C44141414141414000000000000000066
:104250000000000000000000000000F80000000066
:10426000000000333000000000100C06100C0600A7
:10427000000000000000000040C07840C07840000E
:10428000043F04043F040400007088FC0830000070
:10429000001820FF211E0000F008F000E0180000C8
:1042A00000211C031E211E0000F008887000000081
:1042B0001E2123241927211010160E0000000000D3
:1042C0000000000000000000000000E018040200F0
:1042D000000000071820400000020418E000000061
:1042E0000040201807000000404080F0804040005F
:1042F0000202010F01020200000000F000000000B5
:104300000101011F01010100000000000000000088
:1043100080B07000000000000000000000000000FD
:104320000001010101010101000000000000000086
:104330000030300000000000000000008060180421
:10434000006018060100000000E010080810E000FE
:10435000000F102020100F00001010F800000000C7
:104360000020203F2020000000700808088870000E
:10437000003028242221300000300888884830008E
:104380000018202020110E000000C02010F80000AE
:1043900000070424243F240000F808888808080047
:1043A0000019212020110E0000E01088881800005C
:1043B000000F112020110E0000380808C83808002E
:1043C0000000003F000000000070880808887000AE
:1043D000001C222121221C0000E010080810E0002F
:1043E0000000312222110F00000000C0C0000000B8
:1043F00000000030300000000000008000000000DD
:1044000000008060000000000000804020100800D4
:10441000000102040810200040404040404040009D
:104420000404040404040400000810204080000078
:104430000020100804020100007048080808F0007D
:104440000000003036010000C030C828E810E0004D
:104450000718272423140B000000C038E0000000D8
:10446000203C23020227382008F888888870000042
:10447000203F202020110E00C03008080808380016
:10448000071820202010080008F808080810E0008D
:10449000203F202020100F0008F88888E80810002E
:1044A000203F20202320180008F88888E808100002
:1044B000203F200003000000C0300808083800003A
:1044C00007182020221E020008F808000008F8083B
:1044D000203F210101213F20000808F808080000C2
:1044E0000020203F2020000000000808F8080800F5
:1044F000C08080807F00000008F888C0281808006D
:10450000203F20012638200008F8080000000000A5
:10451000203F20202020300008F8F800F8F808009C
:10452000203F003F003F200008F830C00008F80896
:10453000203F200007183F00E01008080810E000A6
:104540000F10202020100F0008F808080808F000BD
:10455000203F210101010000E01008080810E000E0
:104560000F18242438504F0008F888888888700075
:10457000203F2000030C3020007088080808380015
:104580000038202121221C00180808F8080818000B
:104590000000203F2000000008F808000008F8088C
:1045A000001F202020201F000878880000C838083D
:1045B000000007380E010000F80800F80008F800B5
:1045C000033C0700073C030008186880806818084F
:1045D00020302C03032C30200838C800C8380800CD
:1045E0000000203F2000000010080808C83808001C
:1045F0002038262120201800000000FE02020200C0
:104600000000007F40404000000C30C0000000006F
:10461000000000010638C00000020202FE00000097
:10462000004040407F00000000000402020204003D
:10463000000000000000000000000000000000007A
:104640008080808080808080000202040000000062
:10465000000000000000000000008080808000005A
:104660000019242222223F2008F800808000000048
:10467000003F112020110E0000000080808000000B
:10468000000E112020201100000000808088F8001A
:10469000000E112020103F2000008080808000004C
:1046A000001F222222221300008080F088888818B0
:1046B0000020203F202000000000808080808000BB
:1046C000006B94949493600008F800808080000050
:1046D000203F210000203F2000809898000000002B
:1046E0000020203F2020000000000080989800005B
:1046F00000C08080807F000008F80000808080007B
:10470000203F24022D302000000808F8000000009F
:104710000020203F2020000080808080808080005A
:10472000203F20003F20003F8080008080800000EC
:10473000203F210000203F2000008080808000007A
:10474000001F202020201F008080008080000000AB
:1047500080FFA12020110E000000008080808000DA
:10476000000E112020A0FF808080800080808000CB
:1047700020203F21200001000000808080808000F8
:104780000033242424241900008080E0808000006D
:104790000000001F202000008080000000808000BA
:1047A000001F202020103F2080808000008080801B
:1047B00000010E30080601008080008000808080AB
:1047C0000F300C030C300F000080800080808000D0
:1047D0000020312E0E3120008080800000808080FB
:1047E00080818E70180601000080808080808000AB
:1047F0000021302C2221300000000000807C0202C9
:1048000000000000003F40400002027C80000000E9
:104810000040403F0000000000000000FF000000DA
:1048200000000000FF0000001060028C0000FE92FB
:1048300092929292FE000000000000000000000032
:104840000000000000000000000000000000000068
:104850000000000000000000000000000000000058
:104860000000000000000000000000000000000048
:104870000000000000000000000000000000000038
:104880000000000000000000000000000000000028
:104890000000000000000000000000000000000018
:1048A0000000000000000000000000000000000008
:1048B00000000000000000000000000000000000F8
:1048C00000000000000000000000000000000000E8
:1048D00000000000000000000000000000000000D8
:1048E00000000000000000000000000000000000C8
:1048F00000000000000000000000000000000000B8
:1049000000000000000000000000000000000000A7
:104910000000000000000000000000000000000097
:104920000000000000000004047E01407E42427E40
:10493000427E42427E400000000000000000000075
:104940000000000000000000000000000000000067
:104950000000000000000000000000000000000057
:104960000000000000000000000000000000000047
:104970000000000000000000000000000000000037
:104980000000000000000000000000000000000027
:104990000000000000000000000000000000000017
:1049A0000000000000000000000000000000000007
:1049B00000000000000000000000000000000000F7
:1049C00000000000000000000000000000000000E7
:1049D00000000000000000000000000000000000D7
:1049E00000000000000000000000000000000000C7
:1049F00000000000000000000000000000000000B7
:104A000000000000000000000000000000000000A6
:104A10000000000000000000000000000000000096
:104A20000000000000000000FC242424FC252624B3
:104A3000FC2424240400000000000000000000000A
:104A40000000000000000000000000000000000066
:104A50000000000000000000000000000000000056
:104A60000000000000000000000000000000000046
:104A70000000000000000000000000000000000036
:104A80000000000000000000000000000000000026
:104A90000000000000000000000000000000000016
:104AA0000000000000000000000000000000000006
:104AB00000000000000000000000000000000000F6
:104AC00000000000000000000000000000000000E6
:104AD00000000000000000000000000000000000D6
:104AE00000000000000000000000000000000000C6
:104AF00000000000000000000000000000000000B6
:104B000000000000000000000000000000000000A5
:104B10000000000000000000000000000000000095
:104B2000000000000040308F80844C55252525551D
:104B30004C808080000000000000000000000000A9
:104B40000000000000000000000000000000000065
:104B50000000000000000000000000000000000055
:104B60000000000000000000000000000000000045
:104B70000000000000000000000000000000000035
:104B80000000000000000000000000000000000025
:104B90000000000000000000000000000000000015
:104BA0000000000000000000000000000000000005
:104BB00000000000000000000000000000000000F5
:104BC00000000000000000000000000000000000E5
:104BD00000000000000000000000000000000000D5
:104BE00000000000000000000000000000000000C5
:104BF00000000000000000000000000000000000B5
:104C000000000000000000000000000000000000A4
:104C10000000000000000000000000000000000094
:104C200000000000048484FC848400040484E41CE8
:104C300084040400000000000000000000000000E8
:104C40000000000000000000000000000000000064
:104C50000000000000000000000000000000000054
:104C60000000000000000000000000000000000044
:104C70000000000000000000000000000000000034
:104C80000000000000000000000000000000000024
:104C90000000000000000000000000000000000014
:104CA0000000000000000000000000000000000004
:104CB00000000000000000000000000000000000F4
:104CC00000000000000000000000000000000000E4
:104CD00000000000000000000000000000000000D4
:104CE00000000000000000000000000000000000C4
:104CF00000000000000000000000000000000000B4
:104D000000000000000000000000000000000000A3
:104D10000000000000000000000000000000000093
:104D20000000002060201F101004020100FF00009E
:104D3000010600000000000000000000000000006C
:104D40000000000000000000000000000000000063
:104D50000000000000000000000000000000000053
:104D60000000000000000000000000000000000043
:104D70000000000000000000000000000000000033
:104D80000000000000000000000000000000000023
:104D90000000000000000000000000000000000013
:104DA0000000000000000000000000000000000003
:104DB00000000000000000000000000000000000F3
:104DC00000000000000000000000000000000000E3
:104DD00000000000000000000000000000000000D3
:104DE00000000000000000000000000000000000C3
:104DF00000000000000000000000000000000000B3
:104E000000000000000000000000000000000000A2
:104E10000000000000000000000000000000000092
:104E200000001010FF101020A4ACB5A6B4ACA42054
:104E30002000000000000000000000000000000052
:104E40000000000000000000000000000000000062
:104E50000000000000000000000000000000000052
:104E60000000000000000000000000000000000042
:104E70000000000000000000000000000000000032
:104E80000000000000000000000000000000000022
:104E90000000000000000000000000000000000012
:104EA0000000000000000000000000000000000002
:104EB00000000000000000000000000000000000F2
:104EC00000000000000000000000000000000000E2
:104ED00000000000000000000000000000000000D2
:104EE00000000000000000000000000000000000C2
:104EF00000000000000000000000000000000000B2
:104F000000000000000000000000000000000000A1
:104F10000000000000000000000000000000000091
:104F20000010301F0888804F3A0A0A7A8A8F80E082
:104F30000000000000000000000000000000000071
:104F40000000000000000000000000000000000061
:104F50000000000000000000000000000000000051
:104F60000000000000000000000000000000000041
:104F70000000000000000000000000000000000031
:104F80000000000000000000000000000000000021
:104F90000000000000000000000000000000000011
:104FA0000000000000000000000000000000000001
:104FB00000000000000000000000000000000000F1
:104FC00000000000000000000000000000000000E1
:104FD00000000000000000000000000000000000D1
:104FE00000000000000000000000000000000000C1
:104FF00000000000000000000000000000000000B1
:1050000000000000000000000000000000000000A0
:105010000000000000000000000000000000000090
:105020000000F888888888FF88888888F800000051
:105030000000000000000000000000000000000070
:105040000000000000000000000000000000000060
:105050000000000000000000000000000000000050
:105060000000000000000000000000000000000040
:105070000000000000000000000000000000000030
:105080000000000000000000000000000000000020
:105090000000000000000000000000000000000010
:1050A0000000000000000000000000000000000000
:1050B00000000000000000000000000000000000F0
:1050C00000000000000000000000000000000000E0
:1050D00000000000000000000000000000000000D0
:1050E00000000000000000000000000000000000C0
:1050F00000000000000000000000000000000000B0
:10510000000000000000000000000000000000009F
:10511000000000000000000000000000000000008F
:10512000001F080808087F888888889F80F0000092
:10513000000000000000000000000000000000006F
:10514000000000000000000000000000000000005F
:10515000000000000000000000000000000000004F
:10516000000000000000000000000000000000003F
:10517000000000000000000000000000000000002F
:10518000000000000000000000000000000000001F
:10519000000000000000000000000000000000000F
:1051A00000000000000000000000000000000000FF
:1051B00000000000000000000000000000000000EF
:1051C00000000000000000000000000000000000DF
:1051D00000000000000000000000000000000000CF
:1051E00000000000000000000000000000000000BF
:1051F00000000000000000000000000000000000AF
:10520000000000000000000000000000000000009E
:10521000000000000000000000000000000010601E
:1052200002CC8080FC4020FF1008F8000000000045
:10523000000000000000000000000000000000006E
:10524000000000000000000000000000000000005E
:10525000000000000000000000000000000000004E
:10526000000000000000000000000000000000003E
:10527000000000000000000000000000000000002E
:10528000000000000000000000000000000000001E
:10529000000000000000000000000000000000000E
:1052A00000000000000000000000000000000000FE
:1052B00000000000000000000000000000000000EE
:1052C00000000000000000000000000000000000DE
:1052D00000000000000000000000000000000000CE
:1052E00000000000000000000000000000000000BE
:1052F00000000000000000000000000000000000AE
:10530000000000000000000000000000000000009D
:105310000000000000000000000000000004047E07
:105320000100003F40404F404447407800000000EB
:10533000000000000000000000000000000000006D
:10534000000000000000000000000000000000005D
:10535000000000000000000000000000000000004D
:10536000000000000000000000000000000000003D
:10537000000000000000000000000000000000002D
:10538000000000000000000000000000000000001D
:10539000000000000000000000000000000000000D
:1053A00000000000000000000000000000000000FD
:1053B00000000000000000000000000000000000ED
:1053C00000000000000000000000000000000000DD
:1053D00000000000000000000000000000000000CD
:1053E00000000000000000000000000000000000BD
:1053F00000000000000000000000000000000000AD
:10540000000000000000000000000000000000009C
:105410000000000000000000000000000000FE028C
:1054200082828282FA8282828282020000000000EE
:10543000000000000000000000000000000000006C
:10544000000000000000000000000000000000005C
:10545000000000000000000000000000000000004C
:10546000000000000000000000000000000000003C
:10547000000000000000000000000000000000002C
:10548000000000000000000000000000000000001C
:10549000000000000000000000000000000000000C
:1054A00000000000000000000000000000000000FC
:1054B00000000000000000000000000000000000EC
:1054C00000000000000000000000000000000000DC
:1054D00000000000000000000000000000000000CC
:1054E00000000000000000000000000000000000BC
:1054F00000000000000000000000000000000000AC
:10550000000000000000000000000000000000009B
:10551000000000000000000000000080601F40400C
:105520004040407F404044584040000000000000A0
:10553000000000000000000000000000000000006B
:10554000000000000000000000000000000000005B
:10555000000000000000000000000000000000004B
:10556000000000000000000000000000000000003B
:10557000000000000000000000000000000000002B
:10558000000000000000000000000000000000001B
:10559000000000000000000000000000000000000B
:1055A00000000000000000000000000000000000FB
:1055B00000000000000000000000000000000000EB
:1055C00000000000000000000000000000000000DB
:1055D00000000000000000000000000000000000CB
:1055E00000000000000000000000000000000000BB
:1055F00000000000000000000000000000000000AB
:10560000000000000000000000000000000000009A
:10561000000000000000000000001060028C004448
:1056200064544D46445464C404000000000000006B
:10563000000000000000000000000000000000006A
:10564000000000000000000000000000000000005A
:10565000000000000000000000000000000000004A
:10566000000000000000000000000000000000003A
:10567000000000000000000000000000000000002A
:10568000000000000000000000000000000000001A
:10569000000000000000000000000000000000000A
:1056A00000000000000000000000000000000000FA
:1056B00000000000000000000000000000000000EA
:1056C00000000000000000000000000000000000DA
:1056D00000000000000000000000000000000000CA
:1056E00000000000000000000000000000000000BA
:1056F00000000000000000000000000000000000AA
:105700000000000000000000000000000000000099
:1057100000000000000000000004047E0180403E04
:105720000000FE00007E80E000000000000000009D
:105730000000000000000000000000000000000069
:105740000000000000000000000000000000000059
:105750000000000000000000000000000000000049
:105760000000000000000000000000000000000039
:105770000000000000000000000000000000000029
:105780000000000000000000000000000000000019
:105790000000000000000000000000000000000009
:1057A00000000000000000000000000000000000F9
:1057B00000000000000000000000000000000000E9
:1057C00000000000000000000000000000000000D9
:1057D00000000000000000000000000000000000C9
:1057E00000000000000000000000000000000000B9
:1057F00000000000000000000000000000000000A9
:105800000000000000000000000000000000000098
:105810000000000000000000008060F80704E4A41D
:10582000A4BFA4A4E40400000000000000000000E5
:105830000000000000000000000000000000000068
:105840000000000000000000000000000000000058
:105850000000000000000000000000000000000048
:105860000000000000000000000000000000000038
:105870000000000000000000000000000000000028
:105880000000000000000000000000000000000018
:105890000000000000000000000000000000000008
:1058A00000000000000000000000000000000000F8
:1058B00000000000000000000000000000000000E8
:1058C00000000000000000000000000000000000D8
:1058D00000000000000000000000000000000000C8
:1058E00000000000000000000000000000000000B8
:1058F00000000000000000000000000000000000A8
:105900000000000000000000000000000000000097
:1059100000000000000000010000FF40407F4A4AF4
:105920004A4A4A7F4040000000000000000000009A
:105930000000000000000000000000000000000067
:105940000000000000000000000000000000000057
:105950000000000000000000000000000000000047
:105960000000000000000000000000000000000037
:105970000000000000000000000000000000000027
:105980000000000000000000000000000000000017
:105990000000000000000000000000000000000007
:1059A00000000000000000000000000000000000F7
:1059B00000000000000000000000000000000000E7
:1059C00000000000000000000000000000000000D7
:1059D00000000000000000000000000000000000C7
:1059E00000000000000000000000000000000000B7
:1059F00000000000000000000000000000000000A7
:105A00000000000000000000000000000000000096
:105A10000000000000000000000000000000010283
:105A20000304060708090000000001020304000047
:105A3000505A00080000002030000000DC3200084E
:105A4000805A00083000002058050000EC320008A1
:105A5000AE001040B081FFA1A6A83FC8D300D580FA
:105A6000D805D9F1DA12D8308D14AF00010000004A
:105A700010000000000000000024F40000000000FE
:04000005080000ED02
:00000001FF
